:101800004AC07EC063C062C061C060C05FC05EC0CD
:101810005DC05CC05BC05AC059C058C057C056C0FC
:1018200055C054C053C0EC2DFD2DB7B6B0FCFDCF54
:1018300027BFE895B7B6B0FCFDCF21E1B7B6B6FC3F
:10184000F4CF08950902120001010080320904005A
:1018500000000000000012011001FF000008C01687
:10186000DC050201010200010E0355005300420095
:101870006100730070001C037700770077002E0072
:10188000660069007300630068006C002E0064004D
:1018900065000403090411241FBECFE5D4E0DEBFB8
:1018A000CDBF10E0A0E6B0E0E6EEFFE102C005909B
:1018B0000D92A836B107D9F710E0A8E6B0E001C054
:1018C0001D92AE39B107E1F72FD18BC399CFA82F65
:1018D000B92F80E090E041E050EA609530E009C027
:1018E0002D9182279795879510F084279527305E54
:1018F000C8F36F5FA8F30895EADF8D939D93089571
:10190000CF93CFB7CF93DF93C395869BE9F7869BA1
:101910000BC0869B09C0869B07C0869B05C0869B23
:1019200003C0869B01C089C06F93C0918100DD27F1
:10193000C857DF4F2F9365E5869B03C02F916F91AA
:10194000E6CF0F931F934F9320E040E15F9300B3E6
:10195000047406FB27F93F9350E03BE039C0147450
:1019600040642F77012F5F5F1EC0406810B314746E
:101970002F7752501FC0406400B32F770474D1F109
:101980005F5F00C023C0406210B32F77147491F1E1
:101990005F5F00C025C004741027515012F45D5FD2
:1019A0000000115027952C3F10B3C8F6147401277E
:1019B000015027952C3FC8F64227499300B3047481
:1019C00010274F73115027952C3FA8F64695469542
:1019D00010B3147479F00127015027952C3F98F625
:1019E0006B5A60F3315000B3B0F600C010E41ABF78
:1019F000002717C03B503195C31BD04010E41ABFDD
:101A00000881033CF9F00B34E9F020917F00198143
:101A1000110F1213EDCF093651F10D3211F0013EC5
:101A200039F7009386003F915F914F911F910F917D
:101A30002F916F91CAB7C6FD67CFDF91CF91CFBF0E
:101A4000CF91189520918600222369F3109184008C
:101A5000112339F534303AF130938400209380001B
:101A6000109181003BE0311B309381001CC000913C
:101A700084000130B4F40AE53091610034FD14C0F3
:101A800000936100C4E7D0E013C0052710E000C058
:101A9000000002BB1AC0052710E0221F1DC010E085
:101AA00021C04AE502C032ED432FC4E1D0E032E06C
:101AB00011B31464969A02B311BB54E420E865E3B1
:101AC00020FF052702BB279517951C3FF0F666956A
:101AD000B8F7B1F720FF052702BB279517951C3FE4
:101AE000D0F62795179517FF052700001C3F02BB6E
:101AF000B0F629913A9519F70B7B10918500110FDB
:101B0000C651D04002BB11F010937F0010E41ABF01
:101B1000006411B31B7B402F4B7B54E05A95F1F7C7
:101B200002BB11BB42BB7FCF11BA80E882BB14BE9F
:101B300081E08BBF82E08BBF879931C288E10FB60D
:101B4000F89481BD11BC0FBE85B7826085BF8BB78D
:101B500080648BBF8E9A8FEF91EBACE08150904008
:101B6000A040E1F700C000008E98789400918400B6
:101B7000035007FD7AC1209181008CE090E0821B28
:101B80009109EC01C857DF4F209180002D3209F0F8
:101B9000E8C0083009F067C123EC209374002AE5FF
:101BA00020936100109268004881242F20763981AB
:101BB000222309F463C089E690E090938300809328
:101BC0008200333081F59B818C812A81203339F466
:101BD0008370E82FF0E0ED59FF4F808120C0283559
:101BE00029F4992371F4E1E0F0E006C0203571F4A6
:101BF0009923A1F4E0E0F0E089E08093570084911C
:101C00000EC0983059F4E3E0F0E0F6CF203A11F43A
:101C1000D3D105C0203C11F46D81D6D180E08093F2
:101C20006C0024E094C0353029F13A3019F1832F4B
:101C300084508630A8F48A819B8190936E008093B3
:101C40006D003930C9F02E8120936F008D81827034
:101C5000809370003093710047FD75C02FEF73C003
:101C600080916000323011F48E7F01C081608093DA
:101C7000600002C021E06BC020E069C02A811092A0
:101C80007D00332331F410927E008DE790E022E056
:101C900055C0353019F42093850044C03630E1F545
:101CA000FC01E657FF4F208185579F4FDC018C9147
:101CB000813019F486E598E104C0823041F484E46F
:101CC00098E1909383008093820022E121C08330C9
:101CD000F1F4222341F482E998E190938300809308
:101CE000820024E015C0213041F486E798E190930A
:101CF0008300809382002CE10BC0223041F488E6FF
:101D000098E190938300809382002EE001C020E050
:101D100080E4809368001BC0383069F0393029F4C2
:101D2000209387008DE790E004C08DE790E03A3083
:101D300021F020E003C087E890E021E09093830049
:101D40008093820004C080E88093680007C08F8180
:101D5000882321F48E81821708F4282F20936200B3
:101D600082C08091680087FF7EC080916F008017DD
:101D700008F4082F801B80936F0011E0811110E0A0
:101D800080917100873008F466C07E010FC0809199
:101D90006D0090916E009C012F5F3F4F30936E005D
:101DA00020936D00F70161917F010ED18E2D8C1B68
:101DB000801768F354C080916D0090916E0038E1F7
:101DC0008030930708F04DC02E5FF894E0916D00CD
:101DD000F0916E008991999131E00C013093570098
:101DE000E8951124789480916D0090916E00029690
:101DF00090936E0080936D008F739070009741F008
:101E0000112351F1201740F180917000882321F1B6
:101E1000F894E0916D00F0916E00329783E080932A
:101E20005700E895789407B600FCFDCFF894E09150
:101E30006D00F0916E00329785E080935700E89531
:101E4000789407B600FCFDCFF89481E180935700A9
:101E5000E895789401C020E0201708F4ACCF112356
:101E600011F010926200109284008091610084FF52
:101E700072C0809162008F3F09F46DC0C82F893015
:101E800008F0C8E08C1B809362008091740098E891
:101E9000892780937400CC2309F44CC0809168009A
:101EA00087FF28C080916F008C1708F4C82F8C1B07
:101EB00080936F00D0E005E710E019C080917100B9
:101EC000E0906D00F0906E00873018F0C70174D07C
:101ED00002C0F7018491D8018C930F5F1F4F0894C3
:101EE000E11CF11CF0926E00E0926D00DF5FDC17E8
:101EF00029F71EC0E0918200F091830086FF09C09F
:101F00008C2FA5E7B0E094919D9331968150D9F73D
:101F10000BC0DF012C2F85E790E03D91FC01319350
:101F2000CF01FD012150C9F7F0938300E0938200B7
:101F3000C93058F485E790E06C2FDEDCCC5FCC3004
:101F400041F08FEF8093620004C08FEF80936200B6
:101F5000CEE1C093610084E190B3947431F4815078
:101F6000D9F71092850010927F0080916000803137
:101F700030F0879B0FC080916000805109C0879925
:101F800009C080916000823028F08091600082500A
:101F90008093600080916000882309F0E7CDF89479
:101FA0008E9A12BA1BBE15BE81E08BBF1BBEE0919C
:101FB0007200F09173000995E199FECF9FBB8EBB33
:101FC000E09A99278DB30895262FE199FECF9FBB04
:101FD0008EBB2DBB0FB6F894E29AE19A0FBE019624
:061FE0000895F894FFCF04
:081FE600FE5AFF1E93070000E4
:0400000300001800E1
:00000001FF
