:1000000012C02CC02BC02AC029C028C027C026C0BF
:1000100025C024C023C022C021C020C01FC01EC0D4
:100020001DC01CC01BC011241FBECFE5D4E0DEBF25
:10003000CDBF10E0A0E6B0E0ECE0FCE002C005902F
:100040000D92A236B107D9F710E0A2E6B0E001C0E8
:100050001D92A236B107E1F7E2D4D6C5D1CFBF9247
:10006000CF92DF92DC01CB01B901E3E1FCE00F921A
:100070001F92D92EC82EBA2E242F172E062E099580
:100080002131F9F71F900F90DF90CF90BF90089526
:10009000BF92CF92DF92DC01CB01B901E3E9FFE02F
:1000A0000F921F92D92EC82EBA2E242F172E062E4D
:1000B00009952131F9F71F900F90DF90CF90BF90F5
:1000C0000895CF93DF93DC01CB01FA01E9012134DC
:1000D000310510F0C0E4D0E0AC01BD01407CCF019F
:1000E0009E0194D4CE01DF91CF9108952F923F923B
:1000F0004F925F926F927F928F929F92AF92BF9238
:10010000CF92DF92EF92FF920F931F93CF93DF93E3
:10011000DC01CB01180189012134310510F000E424
:1001200010E028015694479430EC832E3FEF932E35
:100130003FEFA32E3FEFB32E88229922AA22BB22A3
:100140003A01DA0140E050E030E020E019C0C4019B
:10015000861997098A0F9B1FFC01659174918D91F7
:100160009D916817790709F021E080959095862B7D
:10017000972B6FEF8F3F960709F031E04F5F5F4F8E
:100180004415550521F7222359F1332339F0C501D0
:10019000B40143E020E030E0F1010995750164010C
:1001A000C0E0D0E012C0D3012D913D913D01C701C7
:1001B000B60141E0F101099582E090E0A0E0B0E0F5
:1001C000C80ED91EEA1EFB1E2196C415D50559F787
:1001D000C501B40145E020E030E0F101099502C01D
:1001E00000E010E0C801DF91CF911F910F91FF90C7
:1001F000EF90DF90CF90BF90AF909F908F907F90C7
:100200006F905F904F903F902F9008955EC092C086
:1002100077C076C075C074C073C072C071C070C042
:100220006FC06EC06DC06CC06BC06AC069C068C072
:1002300067C0EC2DFD2DB7B6B0FCFDCF27BFE8950C
:10024000B7B6B0FCFDCF21E1B7B6B6FCF4CF089548
:10025000FFFFFFFF5374657068616E204261657235
:10026000776F6C663A205553426173704C6F6164CE
:1002700065722076302E39360902120001010080A5
:100280003209040000000000000012011001FF000C
:100290000008C016DC050201010200010E03550032
:1002A000530042006100730070001C037700770068
:1002B00077002E00660069007300630068006C0020
:1002C0002E00640065000403090411241FBECFE55D
:1002D000D4E0DEBFCDBF10E0A0E6B0E0E8EFFFE184
:1002E00002C005900D92A836B107D9F710E0A8E634
:1002F000B0E001C01D92AC39B107E1F774D180C301
:1003000085CFA82FB92F80E090E041E050EA6095BA
:1003100030E009C02D9182279795879510F08427AA
:100320009527305EC8F36F5FA8F30895EADF8D93D9
:100330009D930895CF93CFB7CF93DF93C395879BBA
:10034000E9F7879B0BC0879B09C0879B07C0879BEA
:1003500005C0879B03C0879B01C089C06F93C09174
:100360007F00DD27CA57DF4F2F9365E5879B03C0CA
:100370002F916F91E6CF0F931F934F9320E040E1B1
:100380005F9300B3047807FB27F93F9350E03BE00D
:1003900039C0147840642F77012F5F5F1EC040681A
:1003A00010B314782F7752501FC0406400B32F77DA
:1003B0000478D1F15F5F00C023C0406210B32F7793
:1003C000147891F15F5F00C025C004781027515068
:1003D00012F45D5F0000115027952C3F10B3C8F652
:1003E00014780127015027952C3FC8F642274993DE
:1003F00000B3047810274F73115027952C3FA8F6AF
:100400004695469510B3147879F001270150279549
:100410002C3F98F66B5A60F3315000B3B0F600C031
:1004200010E41ABF002717C03B503195C31BD040C2
:1004300010E41ABF0881033CF9F00B34E9F0209175
:100440007D001981110F1213EDCF093651F10D32D4
:1004500011F0013E39F7009384003F915F914F9175
:100460001F910F912F916F91CAB7C6FD67CFDF9192
:10047000CF91CFBFCF91189520918400222369F3AB
:1004800010918200112339F534303AF13093820013
:1004900020937E0010917F003BE0311B30937F0062
:1004A0001CC0009182000130B4F40AE53091610073
:1004B00034FD14C000936100C2E7D0E013C00527EB
:1004C00010E000C0000002BB1AC0052710E0221F88
:1004D0001DC010E021C04AE502C032ED432FC4E147
:1004E000D0E032E011B31468979A02B311BB54E81C
:1004F00020E865E320FF052702BB279517951C3FE1
:10050000F0F66695B8F7B1F720FF052702BB2795EF
:1005100017951C3FD0F62795179517FF0527000064
:100520001C3F02BBB0F629913A9519F70B77109151
:100530008300110FC651D04002BB11F010937D0013
:1005400010E41ABF006811B31B77402F4B7754E0BB
:100550005A95F1F702BB11BB42BB7FCFDC0113966A
:100560003C911397932F1496EC9114978E2F12961B
:100570002C911297203331F4E370F0E0EE59FF4FE5
:1005800080810895283529F4332351F4E1E0F0E027
:100590000BC0203571F4332321F5E0E0F0E004C016
:1005A0003830E9F4E3E0F0E089E08093570084918B
:1005B0000895203221F4FC01EE0FFF1F06C02832FF
:1005C00031F4FC01EE0FFF1F319684910895203A1B
:1005D00009F401C2203C29F415966C9104D280E004
:1005E000089580E0089511BA80E482BB14BE81E0D2
:1005F0008BBF82E08BBF8699E2C185B7826085BFE1
:100600008BB780648BBF8F9A80E131978040E9F788
:100610008F987894D0918200D350D7FD40C120911B
:100620007F008CE090E0821B910946E8A42E40E018
:10063000B42EA80EB91E20917E002D3209F0C8C03C
:10064000D83009F02AC123EC209372002AE52093C8
:10065000610010926800D5013C91432F40761196BD
:100660002C9111974423C9F189E690E09093810081
:1006700080938000233031F4C50170DF80936C00DB
:10068000C4E097C0253039F12A3029F1822F8450F7
:100690008630B0F4F5018281938190936E0080934F
:1006A0006D002930B1F0C681C0936F0085818270E2
:1006B000809370002093710037FD77C0CFEF75C035
:1006C00080916000223011F48E7F01C081608093A0
:1006D0006000C0E06EC0C1E06CC0D50112963C91D4
:1006E000129710927B00222331F410927C008BE74A
:1006F00090E0C2E055C0253019F43093830044C027
:100700002630E1F5FC01E857FF4F208187579F4FC6
:10071000FC018081813019F48EE798E104C08230B9
:1007200041F48CE698E19093810080938000C2E1CF
:1007300021C08330F1F4222341F48AEB98E19093B5
:10074000810080938000C4E015C0213041F48EE91F
:1007500098E19093810080938000CCE10BC022301F
:1007600041F480E998E19093810080938000CEE08D
:1007700001C0C0E080E4809368001BC0283069F0AD
:10078000293029F4309385008BE790E004C08BE793
:1007900090E02A3021F0C0E003C085E890E0C1E09D
:1007A000909381008093800004C080E8809368006B
:1007B0000CC0D50117968C911797882331F41696A3
:1007C0008C9116978C1708F4C82FC093660065C0EB
:1007D0008091680087FF61C080916F008D1708F4D9
:1007E000D82F8D1B80936F0001E0811100E0809174
:1007F00071008730B0F075010FC020916D0030910D
:100800006E00C901019690936E0080936D00F70110
:1008100061917F01C901E7D08E2D8A198D1768F388
:1008200038C080917000E0916D00F0916E00D501AC
:10083000D0FDD395D25048F1F83138F522D0F89454
:100840000D901D9021E017D02E2F2E5F2F7331F0C9
:10085000002379F0882369F0D03059F423E00BD0DD
:1008600010D025E008D00DD007B606FE02C021E169
:1008700002D03296DFCFF89427BFE8951124789400
:10088000089507B600FCFDCF0895F0936E00E09345
:100890006D00002311F0109266001092820080918A
:1008A000610084FF70C0809166008F3F09F46BC0C7
:1008B000D82F893008F0D8E08D1B80936600809196
:1008C000720098E8892780937200DD2309F44AC0FA
:1008D0008091680087FF2AC080916F008D1708F40F
:1008E000D82F8D1B80936F00DD2403E710E01BC021
:1008F00080917100E0906D00F0906E00873028F0DC
:10090000C70169D0F801808304C0F7018491D80140
:100910008C930F5F1F4F0894E11CF11CF0926E0046
:10092000E0926D00D394DD1619F71AC0E0918000B3
:10093000F091810086FF09C08D2FA3E7B0E094916C
:100940009D9331968150D9F707C08D2FA3E7B0E072
:1009500091919D938150E1F7F0938100E0938000A5
:10096000D93058F483E790E06D2FE0DCDC5FDC30B9
:1009700041F08FEF8093660004C08FEF8093660094
:10098000DEE1D093610084E190B3947831F481503A
:10099000D9F71092830010927D0080916000803121
:1009A00018F08699805104C0823010F0869B8250E6
:1009B0008093600080916000882309F02BCEF8942A
:1009C000EE278F9A9698EBBFE5BFF1E0FBBFEBBF38
:1009D000FF270995EECEE199FECF9FBB8EBBE09A33
:1009E00099278DB30895262FE199FECF9FBB8EBB2B
:1009F0002DBB0FB6F894E29AE19A0FBE01960895C6
:100A0000F894FFCFFE5A1E930700FF00FA01DC01A5
:100A100002C005900D9221503040D8F70895AF9252
:100A2000BF92CF92DF92EF92FF920F931F93CF93DB
:100A3000DF93CDB7DEB7C054D0400FB6F894DEBF19
:100A40000FBECDBF88E10FB6F89481BD11BC0FBEBB
:100A5000F8941982609160007091610020E030E0AC
:100A6000FB01E20FF31F45915491F901E050F84E5C
:100A7000859194914817590719F081E0898306C040
:100A80002E5F3F4F88E02030380751F78981882357
:100A900009F4A1C076E2C72E78E1D72EE12CF12C23
:100AA000C701B601AE014F5F5F4F20E430E009DBC4
:100AB0009C01C701B6016652794F8F4F9F4FAE011F
:100AC0004F5F5F4F0FE210E011DB80E490E0A0E0A9
:100AD000B0E0C80ED91EEA1EFB1E96E2C91699E1C7
:100AE000D90690E0E90690E0F906D1F6C12C68E15C
:100AF000D62EE12CF12CA12C58EEB52EAC0CBD1C41
:100B0000CE0101966FEF70E040E450E076D0409166
:100B10006000509161004A0D5B1D662757FD60958E
:100B2000762FCE01019620E430E070DFC701B601D8
:100B3000AE014F5F5F4F20E430E008E410E0D6DA0A
:100B400080E490E0A0E0B0E0C80ED91EEA1EFB1ED3
:100B500090E8C91699E1D90690E0E90690E0F90617
:100B600051F6C12C48E0D42ECA18DB08CE010196FC
:100B70006FEF70E040E450E040D040916000509151
:100B800061004A0D5B1D662757FD6095762F960123
:100B9000A1E4CA16D10410F020E430E0CE010196A1
:100BA00035DFB5016050784E80E090E0AE014F5FD8
:100BB0005F4F20E430E00FE210E098DA80E490E04C
:100BC000A80EB91EA0ECBFEFCA0EDB1EB0E0AB163C
:100BD000B8E0BB0658F2C05CDF4F0FB6F894DEBF3A
:100BE0000FBECDBFDF91CF911F910F91FF90EF907E
:100BF000DF90CF90BF90AF900895DC0101C06D935E
:0C0C000041505040E0F70895F894FFCFF9
:020C0C000C02D8
:00000001FF
