:1000000012C02CC02BC02AC029C028C027C026C0BF
:1000100025C024C023C022C021C020C01FC01EC0D4
:100020001DC01CC01BC011241FBECFE5D4E0DEBF25
:10003000CDBF10E0A0E6B0E0E6EDFBE002C0059029
:100040000D92A236B107D9F710E0A2E6B0E001C0E8
:100050001D92A236B107E1F7C6D4BBC5D1CFBF927E
:10006000CF92DF92DC01CB01B901E3E1FCE00F921A
:100070001F92D92EC82EBA2E242F172E062E099580
:100080002131F9F71F900F90DF90CF90BF90089526
:10009000BF92CF92DF92DC01CB01B901E3E9FFE02F
:1000A0000F921F92D92EC82EBA2E242F172E062E4D
:1000B00009952131F9F71F900F90DF90CF90BF90F5
:1000C0000895CF93DF93DC01CB01FA01E9012134DC
:1000D000310510F0C0E4D0E0AC01BD01407CCF019F
:1000E0009E0178D4CE01DF91CF9108952F923F9257
:1000F0004F925F926F927F928F929F92AF92BF9238
:10010000CF92DF92EF92FF920F931F93CF93DF93E3
:10011000DC01CB01180189012134310510F000E424
:1001200010E028015694479430EC832E3FEF932E35
:100130003FEFA32E3FEFB32E88229922AA22BB22A3
:100140003A01DA0140E050E030E020E019C0C4019B
:10015000861997098A0F9B1FFC01659174918D91F7
:100160009D916817790709F021E080959095862B7D
:10017000972B6FEF8F3F960709F031E04F5F5F4F8E
:100180004415550521F7222359F1332339F0C501D0
:10019000B40143E020E030E0F1010995750164010C
:1001A000C0E0D0E012C0D3012D913D913D01C701C7
:1001B000B60141E0F101099582E090E0A0E0B0E0F5
:1001C000C80ED91EEA1EFB1E2196C415D50559F787
:1001D000C501B40145E020E030E0F101099502C01D
:1001E00000E010E0C801DF91CF911F910F91FF90C7
:1001F000EF90DF90CF90BF90AF909F908F907F90C7
:100200006F905F904F903F902F9008954AC07EC0AE
:1002100063C062C061C060C05FC05EC05DC05CC0E2
:100220005BC05AC059C058C057C056C055C054C012
:1002300053C0EC2DFD2DB7B6B0FCFDCF27BFE89520
:10024000B7B6B0FCFDCF21E1B7B6B6FCF4CF089548
:1002500009021200010100803209040000000000C0
:10026000000012011001FF000008C016DC050201A9
:10027000010200010E0355005300420061007300AB
:1002800070001C037700770077002E00660069007D
:100290007300630068006C002E00640065000403B6
:1002A000090411241FBECFE5D4E0DEBFCDBF10E0AE
:1002B000A0E6B0E0E0ECFFE102C005900D92A836A8
:1002C000B107D9F710E0A8E6B0E001C01D92AC3943
:1002D000B107E1F77DD178C399CFA82FB92F80E07E
:1002E00090E041E050EA609530E009C02D9182270E
:1002F0009795879510F084279527305EC8F36F5F38
:10030000A8F30895EADF8D939D930895CF93CFB717
:10031000CF93DF93C395879BE9F7879B0BC0879BA0
:1003200009C0879B07C0879B05C0879B03C0879B2D
:1003300001C089C06F93C0917F00DD27CA57DF4F8E
:100340002F9365E5879B03C02F916F91E6CF0F93A5
:100350001F934F9320E040E15F9300B3047807FBC5
:1003600027F93F9350E03BE039C0147840642F7781
:10037000012F5F5F1EC0406810B314782F77525072
:100380001FC0406400B32F770478D1F15F5F00C0D5
:1003900023C0406210B32F77147891F15F5F00C0E3
:1003A00025C004781027515012F45D5F00001150F1
:1003B00027952C3F10B3C8F61478012701502795D4
:1003C0002C3FC8F64227499300B3047810274F7397
:1003D000115027952C3FA8F64695469510B31478F2
:1003E00079F00127015027952C3F98F66B5A60F35E
:1003F000315000B3B0F600C010E41ABF002717C098
:100400003B503195C31BD04010E41ABF0881033C18
:10041000F9F00B34E9F020917D001981110F1213CE
:10042000EDCF093651F10D3211F0013E39F700934D
:1004300084003F915F914F911F910F912F916F9188
:10044000CAB7C6FD67CFDF91CF91CFBFCF911895C7
:1004500020918400222369F310918200112339F541
:1004600034303AF13093820020937E0010917F0067
:100470003BE0311B30937F001CC0009182000130B3
:10048000B4F40AE53091610034FD14C000936100BA
:10049000C2E7D0E013C0052710E000C0000002BB97
:1004A0001AC0052710E0221F1DC010E021C04AE538
:1004B00002C032ED432FC4E1D0E032E011B3146842
:1004C000979A02B311BB54E820E865E320FF0527A3
:1004D00002BB279517951C3FF0F66695B8F7B1F764
:1004E00020FF052702BB279517951C3FD0F62795BF
:1004F000179517FF052700001C3F02BBB0F6299196
:100500003A9519F70B7710918300110FC651D0401F
:1005100002BB11F010937D0010E41ABF006811B304
:100520001B77402F4B7754E05A95F1F702BB11BB74
:1005300042BB7FCFF8948F9A96981BBE15BEF1E010
:10054000FBBF1BBE63C2DC0113963C911397932F34
:100550001496EC9114978E2F12962C9112972033AB
:1005600031F4E370F0E0EE59FF4F808108952835B3
:1005700029F4332351F4E1E0F0E00BC0203571F4AD
:10058000332321F5E0E0F0E004C03830E9F4E3E0A3
:10059000F0E089E08093570084910895203221F49F
:1005A000FC01EE0FFF1F06C0283231F4FC01EE0FF4
:1005B000FF1F319684910895203A09F4F0C1203C40
:1005C00029F415966C91F3D180E0089580E00895A8
:1005D00011BA80E482BB14BE81E08BBF82E08BBF86
:1005E0008699DCC185B7826085BF8BB780648BBF7D
:1005F0008F9A80E131978040E9F78F987894C09185
:100600008200C350C7FD3EC120917F008CE090E086
:10061000821B91098C010A571F4F20917E002D32B9
:1006200009F0C9C0C83009F02BC123EC2093720037
:100630002AE52093610010926800D8014C91242F84
:10064000207611963C9111972223D1F189E690E012
:100650009093810080938000333031F4C80173DFC0
:1006600080936C0024E098C0353031F13A3021F1AC
:10067000832F84508630B0F4F80182819381909367
:100680006E0080936D003930C9F0268120936F0091
:1006900085818270809370003093710047FD78C02F
:1006A0002FEF76C080916000323011F48E7F01C050
:1006B00081608093600002C021E06EC020E06CC0C9
:1006C000D80112962C91129710927B00332331F4AB
:1006D00010927C008BE790E022E055C0353019F491
:1006E0002093830044C03630E1F5FC01E857FF4F0A
:1006F000208187579F4FFC018081813019F486E566
:1007000098E104C0823041F484E498E19093810040
:100710008093800022E121C08330F1F4222341F450
:1007200082E998E1909381008093800024E015C0D5
:10073000213041F486E798E1909381008093800016
:100740002CE10BC0223041F488E698E190938100BF
:10075000809380002EE001C020E080E48093680058
:100760001BC0383069F0393029F4209385008BE7BD
:1007700090E004C08BE790E03A3021F020E003C025
:1007800085E890E021E0909381008093800004C090
:1007900080E8809368000CC0D80117968C91179759
:1007A000882331F416968C911697821708F4282F17
:1007B0002093660065C08091680087FF61C08091CA
:1007C0006F008C1708F4C82F8C1B80936F00D1E04A
:1007D0008111D0E0809171008730B0F078010FC0B6
:1007E00080916D0090916E009C012F5F3F4F309380
:1007F0006E0020936D00F70161917F01D8D08E2D9E
:10080000801B8C1768F338C080917000E0916D00F8
:10081000F0916E00D801C0FDC395C25048F1F83187
:1008200038F522D0F8940D901D9021E017D02E2F8E
:100830002E5F2F7331F0DD2379F0882369F0C0300B
:1008400059F423E00BD010D025E008D00DD007B626
:1008500006FE02C021E102D03296DFCFF89427BF16
:10086000E89511247894089507B600FCFDCF08950B
:10087000F0936E00E0936D00DD2311F0109266009E
:10088000109282008091610084FF6CC080916600AC
:100890008F3F09F467C0182F893008F018E0811BDA
:1008A000809366008091720098E889278093720097
:1008B000112309F446C08091680087FF26C080910B
:1008C0006F00811708F4182F811B80936F0000E0E0
:1008D000C3E7D0E017C080917100E0906D00F09008
:1008E0006E00873018F0C7015AD002C0F70184911A
:1008F000888321960894E11CF11CF0926E00E0922E
:100900006D000F5F011739F71AC0E0918000F09178
:10091000810086FF09C0812FA3E7B0E094919D93E9
:1009200031968150D9F707C0812FA3E7B0E09191AC
:100930009D938150E1F7F0938100E093800019309E
:1009400058F483E790E0612FDDDC1C5F1C3041F040
:100950008FEF8093660004C08FEF809366001EE1E6
:100960001093610084E190B3947831F48150D9F709
:100970001092830010927D0080916000803118F009
:100980008699805104C0823010F0869B82508093FB
:10099000600080916000882309F031CECBDDE199C1
:1009A000FECF9FBB8EBBE09A99278DB30895262F6B
:1009B000E199FECF9FBB8EBB2DBB0FB6F894E29A98
:1009C000E19A0FBE01960895F894FFCFFE5A1E9348
:1009D0000700FF00FA01DC0102C005900D922150D2
:1009E0003040D8F70895AF92BF92CF92DF92EF9246
:1009F000FF920F931F93CF93DF93CDB7DEB7C05411
:100A0000D0400FB6F894DEBF0FBECDBF88E10FB661
:100A1000F89481BD11BC0FBEF894198260916000FA
:100A20007091610020E030E0FB01E20FF31F45917F
:100A30005491F901E050F84E859194914817590767
:100A400019F081E0898306C02E5F3F4F87E0283C84
:100A5000380751F78981882309F4A2C076E2C72EAE
:100A600078E1D72EE12CF12CC701B601AE014F5F22
:100A70005F4F20E430E025DB9C01C701B6016652E0
:100A8000794F8F4F9F4FAE014F5F5F4F0FE210E0E6
:100A90002DDB80E490E0A0E0B0E0C80ED91EEA1E95
:100AA000FB1E96E2C91699E1D90690E0E90690E0AE
:100AB000F906D1F6C12C68E1D62EE12CF12CA12C3F
:100AC00058EEB52EAC0CBD1CCE0101966FEF70E058
:100AD00040E450E077D040916000509161004A0DB1
:100AE0005B1D662757FD6095762FCE01019620E4A9
:100AF00030E070DFC701B601AE014F5F5F4F20E409
:100B000030E008E410E0F2DA80E490E0A0E0B0E049
:100B1000C80ED91EEA1EFB1E90E8C91699E1D90637
:100B200090E0E90690E0F90651F648ECC42E47E063
:100B3000D42ECA18DB08CE0101966FEF70E040E4B6
:100B400050E040D040916000509161004A0D5B1D23
:100B5000662757FD6095762F9601A1E4CA16D10449
:100B600010F020E430E0CE01019634DFB501605092
:100B7000784E80E090E0AE014F5F5F4F20E430E0C0
:100B80000FE210E0B3DA80E490E0A80EB91EA0EC0A
:100B9000BFEFCA0EDB1EB8ECAB16B7E0BB0658F2CF
:100BA000C05CDF4F0FB6F894DEBF0FBECDBFDF9144
:100BB000CF911F910F91FF90EF90DF90CF90BF905A
:100BC000AF900895DC0101C06D9341505040E0F7B3
:060BD0000895F894FFCF28
:020BD6000C020F
:00000001FF
