:107800005CC000008FC0000073C0000071C00000A9
:107810006FC000006DC000006BC0000069C00000B8
:1078200067C0000065C0000063C0000061C00000C8
:107830005FC000005DC000005BC0000059C00000D8
:1078400057C0000055C0000053C0000051C00000E8
:107850004FC000004DC000004BC0000049C00000F8
:1078600047C0000045C00000040309041C03770062
:10787000770077002E0066006900730063006800DF
:107880006C002E00640065000E035500530042009A
:1078900061007300700012011001FF000008C016A3
:1078A000DC05020101020001090212000101008051
:1078B0003209040000000000000011241FBECFEFB9
:1078C000D8E0DEBFCDBF11E0A0E0B1E0E2EBFFE722
:1078D00002C005900D92A630B107D9F711E0A6E0DD
:1078E000B1E001C01D92AD33B107E1F733D15FC301
:1078F00087CFA82FB92F80E090E041E050EA609553
:1079000030E009C02D9182279795879510F0842744
:107910009527305EC8F36F5FA8F30895EADF8D9373
:107920009D930895CF93CFB7CF93DF93C3954C9B8F
:10793000E9F74C9B11C04C9B0FC04C9B0DC04C9B5E
:107940000BC04C9B09C04C9B07C04C9B05C04C9B7B
:1079500003C04C9B01C081C06F93C0912001DD2703
:10796000C95DDE4F2F9320E400C065E04C9B03C04F
:107970002F916F91DECF0F931F934F9345E55F9348
:1079800055E53F933BE014E009B104712EC06A95C0
:10799000C9F03150D8F109B1047101130BC008943A
:1079A0002795299320E4555500F46A9569F701E07D
:1079B00069B10BC0102F66E02695299320E4555538
:1079C00018F3E2CF0FEF69B10000162F455500F014
:1079D000404066E014710030E2F221F0000009B18D
:1079E000047103C009B10471A9F0011309C008941E
:1079F000279568F200C06A95A9F700E069B1E5CF64
:107A0000102F66E0269528F20000ECCF11E01CBB99
:107A1000002717C03B503195C31BD04011E01CBB61
:107A20000881033CF9F00B34E9F020911E01198123
:107A3000110F1213EDCF093651F10D3211F0013E45
:107A400039F7009325013F915F914F911F910F915D
:107A50002F916F91CCB3C0FD69CFDF91CF91CFBF94
:107A6000CF91189520912501222369F310912301CC
:107A7000112329F534302AF13093230120931F017B
:107A8000109120013BE0311B309320011AC000917E
:107A900023010130A4F40AE53091000134FD12C045
:107AA00000930001C3E1D1E011C0052710E000C040
:107AB0000BB919C0052710E0221F00C01DC04AE500
:107AC00002C032ED432FC4E1D0E032E01AB11461BC
:107AD0005C9A0BB11AB954E120E869E420FF05274C
:107AE0000BB92795179500C000001C3FF0F666956E
:107AF000A8F7A1F720FF05270BB9279517950000D8
:107B00001C3FC0F629913A9541F70B7E1091240154
:107B1000110F0BB9C651D04011F010931E0111E0A6
:107B20001CBB00611AB11B7E402F4B7E55E05A955D
:107B3000F1F70BB91AB94BB986CF1BB8F8941DBA37
:107B40001092690081E085BF15BEE0911101F091AE
:107B50001201099588E10FB6F894809360001092A5
:107B600060000FBE5F9A04B601FE0AC214BE81E037
:107B700085BF82E085BF4F9903C280916900826012
:107B800080936900E89A549A20E005C0A89588E897
:107B900093E10197F1F72150C9F754987894CC24D8
:107BA000DD2490912301935097FD61C180912001C4
:107BB0000CE010E0081B1109095D1E4F80911F01A8
:107BC0008D3209F0DDC0983009F04FC183EC80930D
:107BD00013018AE58093000110920A01D8013C91BB
:107BE000832F807611962C911197882309F451C028
:107BF00086E091E090932201809321012330F9F4F3
:107C000013969C91139714968C91149712962C911D
:107C1000203339F48370E82FF0E0EE5FFE4F80816F
:107C20000AC0203A11F4ADD106C0203C19F4F80185
:107C30006581AFD180E08093090194E093C0253045
:107C400011F491E08FC0822F84508630D8F4D8018F
:107C500012968D919C91139790930D0180930C0136
:107C60002930A9F016969C91169790930E011596BF
:107C70008C91827080930F012093100137FD6DC0AD
:107C80002FEF6CC0223019F481E080930B0190E05B
:107C900069C0F801828110921C01222331F41092F4
:107CA0001D012CE131E092E053C0253019F480939E
:107CB00024014BC02630C9F5D80113968C91813030
:107CC00019F486E998E704C0823041F488EA98E71D
:107CD000909322018093210192E123C0833001F52A
:107CE000F8018281882341F488E698E79093220185
:107CF0008093210194E015C0813041F48CE698E72F
:107D000090932201809321019CE10BC0823041F4C9
:107D100088E898E790932201809321019EE001C0BA
:107D200090E080E480930A011DC0283019F426E217
:107D300031E009C0293019F48093260106C02A30A9
:107D400021F42CE131E091E003C02CE131E090E03E
:107D5000309322012093210105C0292F80E88093D0
:107D60000A010BC0D80117968C911797882321F42C
:107D700016962C91291708F0292F2093010175C020
:107D800080910A0187FF71C080910E01F92E891739
:107D900008F4F82E8F1980930E01EE24882311F435
:107DA000EE24E39480911001873010F0E80114C0B4
:107DB00050910F01E0910C01F0910D0140E04AC09B
:107DC00080910C0190910D01019690930D0180938B
:107DD0000C0101976991DDD0FE01E01BEF1580F3E6
:107DE00040C0CF018F779070892B49F4F89483E0DD
:107DF00080935700E895789407B600FCFDCF4E5F5E
:107E0000F894D8018D919D918D0121E00C01209372
:107E10005700E895112478949F012E5F3F4FC901C8
:107E20008F779070892B31F0EE2099F04F1588F004
:107E3000552379F0F89485E080935700E89578947D
:107E400007B600FCFDCFF89481E180935700E895D8
:107E50007894F9014F1508F4C4CFF0930D01E09325
:107E60000C01EE2011F0109201011092230180917B
:107E7000000184FF71C0809101018F3F09F46CC043
:107E8000182F893008F018E0811B80930101809140
:107E9000130198E8892780931301112309F44AC03C
:107EA00080910A0187FF2AC080910E01811708F492
:107EB000182F811B80930E0100911001C4E1D1E0C5
:107EC00015C0E0910C01F0910D01073018F0CF01C1
:107ED00058D001C084918883219680910C019091A3
:107EE0000D01019690930D0180930C01812F90E07C
:107EF0008C5E9E4FC817D90721F71AC0E091210167
:107F0000F091220186FF09C0912FA4E1B1E0849194
:107F10008D9331969150D9F707C0912FA4E1B1E02C
:107F200081918D939150E1F7F0932201E09321012B
:107F3000193060F484E191E0612FF0DC612F6C5F17
:107F40006C3041F08FEF8093010104C08FEF80937C
:107F500001016EE16093000194E189B1847131F413
:107F60009150D9F71092240110921E0180910B01BB
:107F7000882321F0CA9411F4DA9411F04F9B11CEAA
:107F8000DCDDF999FECF92BD81BDF89A992780B5C5
:107F90000895262FF999FECF1FBA92BD81BD20BD4D
:107FA0000FB6F894FA9AF99A0FBE01960895F894CC
:027FB000FFCF01
:067FB2005AFF1E950F00AE
:040000030000780081
:00000001FF
