:101800003BC06FC054C053C052C051C050C04FC045
:101810004EC04DC04CC04BC04AC049C048C047C074
:1018200046C045C044C0040309041C037700770088
:1018300077002E00660069007300630068006C008A
:101840002E00640065000E03550053004200610045
:101850007300700012011001FF000008C016DC05C3
:101860000201010200010902120001010080320997
:10187000040000000000000011241FBECFE5D4E0EA
:10188000DEBFCDBF10E0A0E6B0E0EAE7FFE102C0B6
:1018900005900D92A636B107D9F710E0A6E6B0E0A4
:1018A00001C01D92AD39B107E1F73BD164C3A8CFA8
:1018B000A82FB92F80E090E041E050EA609530E039
:1018C00009C02D9182279795879510F08427952739
:1018D000305EC8F36F5FA8F30895EADF8D939D93A0
:1018E0000895CF93CFB7CF93DF93C395849BE9F748
:1018F000849B0BC0849B09C0849B07C0849B05C04C
:10190000849B03C0849B01C089C06F93C0918000F9
:10191000DD27C957DF4F2F9365E5849B03C02F91C7
:101920006F91E6CF0F931F934F9320E040E15F93B9
:1019300000B3047104FB27F93F9350E03BE039C04A
:10194000147140642F77012F5F5F1EC0406810B391
:1019500014712F7752501FC0406400B32F77047169
:10196000D1F15F5F00C023C0406210B32F771471C4
:1019700091F15F5F00C025C004711027515012F42F
:101980005D5F0000115027952C3F10B3C8F614710D
:101990000127015027952C3FC8F64227499300B3F1
:1019A000047110274F73115027952C3FA8F64695C8
:1019B000469510B3147179F00127015027952C3FFB
:1019C00098F66B5A60F3315000B3B0F600C010E4E3
:1019D0001ABF002717C03B503195C31BD04010E4FD
:1019E0001ABF0881033CF9F00B34E9F020917E0026
:1019F0001981110F1213EDCF093651F10D3211F08B
:101A0000013E39F7009385003F915F914F911F91FF
:101A10000F912F916F91CAB7C6FD67CFDF91CF911C
:101A2000CFBFCF91189520918500222369F31091A3
:101A30008300112339F534303AF130938300209339
:101A40007F00109180003BE0311B309380001CC070
:101A5000009183000130B4F40AE53091600034FD58
:101A600014C000936000C3E7D0E013C0052710E066
:101A700000C0000002BB1AC0052710E0221F1DC0D5
:101A800010E021C04AE502C032ED432FC4E1D0E0AE
:101A900032E011B31461949A02B311BB54E120E80F
:101AA00065E320FF052702BB279517951C3FF0F63D
:101AB0006695B8F7B1F720FF052702BB2795179564
:101AC0001C3FD0F62795179517FF052700001C3FF0
:101AD00002BBB0F629913A9519F70B7E109184005C
:101AE000110FC651D04002BB11F010937E0010E4DC
:101AF0001ABF006111B31B7E402F4B7E54E05A95F4
:101B0000F1F702BB11BB42BB7FCF12BAF8941BBEE8
:101B100015BE81E08BBF1BBEE0917100F091720099
:101B2000099588E10FB6F89481BD11BC0FBE979A54
:101B300004B601FE0AC214BE81E08BBF82E08BBFF7
:101B4000879903C285B7826085BF8BB780648BBFDE
:101B50008C9A20E005C0A89580EA9FE00197F1F7F4
:101B60002150C9F78C987894CC24DD24909183007F
:101B7000935097FD61C1809180000CE010E0081B3C
:101B8000110909571F4F80917F008D3209F0DDC088
:101B9000983009F04FC183EC809373008AE58093FD
:101BA000600010926A00D8013C91832F80761196D4
:101BB0002C911197882309F451C086E690E0909308
:101BC0008200809381002330F9F413969C9113973F
:101BD00014968C91149712962C91203339F48370BB
:101BE000E82FF0E0EE59FF4F80810AC0203A11F44F
:101BF000ADD106C0203C19F4F8016581AFD180E079
:101C00008093690094E093C0253011F491E08FC077
:101C1000822F84508630D8F4D80112968D919C91F1
:101C2000139790936D0080936C002930A9F016965D
:101C30009C91169790936E0015968C91827080936C
:101C40006F002093700037FD6DC02FEF6CC0223005
:101C500019F481E080936B0090E069C0F801828103
:101C600010927C00222331F410927D002CE730E0AA
:101C700092E053C0253019F4809384004BC0263085
:101C8000C9F5D80113968C91813019F484E598E157
:101C900004C0823041F486E698E1909382008093FC
:101CA000810092E123C0833001F5F801828188230D
:101CB00041F486E298E1909382008093810094E061
:101CC00015C0813041F48AE298E1909382008093BC
:101CD00081009CE10BC0823041F486E498E190934E
:101CE0008200809381009EE001C090E080E48093B8
:101CF0006A001DC0283019F426E830E009C02930F8
:101D000019F48093860006C02A3021F42CE730E0D5
:101D100091E003C02CE730E090E030938200209304
:101D2000810005C0292F80E880936A000BC0D8018C
:101D300017968C911797882321F416962C912917C2
:101D400008F0292F2093610075C080916A0087FFF9
:101D500071C080916E00F92E891708F4F82E8F1942
:101D600080936E00EE24882311F4EE24E394809196
:101D70007000873010F0E80114C050916F00E091BE
:101D80006C00F0916D0040E04AC080916C00909131
:101D90006D00019690936D0080936C00019769919E
:101DA000DDD0FE01E01BEF1580F340C0CF018F7343
:101DB0009070892B49F4F89483E080935700E8955C
:101DC000789407B600FCFDCF4E5FF894D8018D9152
:101DD0009D918D0121E00C0120935700E89511247D
:101DE00078949F012E5F3F4FC9018F739070892BAC
:101DF00031F0EE2099F04F1588F0552379F0F894E2
:101E000085E080935700E895789407B600FCFDCFF5
:101E1000F89481E180935700E8957894F9014F1583
:101E200008F4C4CFF0936D00E0936C00EE2011F045
:101E300010926100109283008091600084FF71C055
:101E4000809161008F3F09F46CC0182F893008F031
:101E500018E0811B809361008091730098E88927C6
:101E600080937300112309F44AC080916A0087FFB0
:101E70002AC080916E00811708F4182F811B80936F
:101E80006E0000917000C4E7D0E015C0E0916C00D6
:101E9000F0916D00073018F0CF0158D001C0849147
:101EA0008883219680916C0090916D0001969093AB
:101EB0006D0080936C00812F90E08C589F4FC81765
:101EC000D90721F71AC0E0918100F091820086FFC6
:101ED00009C0912FA4E7B0E084918D933196915081
:101EE000D9F707C0912FA4E7B0E081918D9391506D
:101EF000E1F7F0938200E0938100193060F484E709
:101F000090E0612FEADC612F6C5F6C3041F08FEF65
:101F10008093610004C08FEF809361006EE1609355
:101F2000600094E180B3847131F49150D9F710923C
:101F3000840010927E0080916B00882321F0CA9467
:101F400011F4DA9411F0879B11CEDFDDE199FECF19
:101F50009FBB8EBBE09A99278DB30895262FE199F8
:101F6000FECF9FBB8EBB2DBB0FB6F894E29AE19AD1
:0A1F70000FBE01960895F894FFCF0C
:061F7A005AFF1E93070050
:0400000300001800E1
:00000001FF
