:103800005CC000008FC0000073C0000071C00000E9
:103810006FC000006DC000006BC0000069C00000F8
:1038200067C0000065C0000063C0000061C0000008
:103830005FC000005DC000005BC0000059C0000018
:1038400057C0000055C0000053C0000051C0000028
:103850004FC000004DC000004BC0000049C0000038
:1038600047C0000045C00000040309041C037700A2
:10387000770077002E00660069007300630068001F
:103880006C002E00640065000E03550053004200DA
:1038900061007300700012011001FF000008C016E3
:1038A000DC05020101020001090212000101008091
:1038B0003209040000000000000011241FBECFEFF9
:1038C000D4E0DEBFCDBF11E0A0E0B1E0E8E7FFE368
:1038D00002C005900D92A630B107D9F711E0A6E01D
:1038E000B1E001C01D92AC33B107E1F755D142C33D
:1038F00087CFA82FB92F80E090E041E050EA609593
:1039000030E009C02D9182279795879510F0842784
:103910009527305EC8F36F5FA8F30895EADF8D93B3
:103920009D930895CF93CFB7CF93C3954C9BE9F761
:103930004C9B09C04C9B07C04C9B05C04C9B03C0D3
:103940004C9B01C0A1C0DF93C0911F01DD27CA5D60
:10395000DE4F4C9B02C0DF91EBCF2F930F931F9351
:1039600009B12FEF04FB20F94F933F9319B14FEFAB
:10397000012704FB21F93BE031C04E7F012F19B133
:10398000216028C0102F4D7F2260000009B129C09E
:103990004B7F2460012F000019B12BC019B1477F64
:1039A00028602AC04F7E09B120612CC04F7D19B11B
:1039B00020622FC04F7B09B1206432C0422709B179
:1039C00049934FEF0000102714FB20F919B114712F
:1039D000C9F1297F91F2012704FB21F909B1237F65
:1039E00089F2315058F1102714FB22F919B1277EC2
:1039F00079F2012704FB23F92F7C81F209B110270A
:103A000014FB24F92F7971F200C019B1012704FBCE
:103A100025F92F7359F200C009B1102714FB26F9BC
:103A2000223040F200C019B1012704FB27F92430ED
:103A300028F64F77206819B10000F9CF11E01CBBC0
:103A4000002717C03B503195C31BD04011E01CBB71
:103A50000881033CE9F00B34D9F020911D01198154
:103A6000110F1213EDCF093641F10D3211F0013E65
:103A700039F7009324013F914F911F910F912F919E
:103A8000DF91CCB3C0FD51CFCF91CFBFCF9118956F
:103A900020912401222379F310912201112311F5A1
:103AA000343012F13093220120931E0110911F0136
:103AB0003BE0311B30931F0117C000912201013000
:103AC0008CF40AE53091000134FD10C00093000130
:103AD000C2E1D1E00FC02795A8F45150A9F4220FFC
:103AE0000000F9CF4AE503C042ED01C0432FC4E115
:103AF000D0E032E01AB114615C9A1AB90BB120E43B
:103B000014E15F93012756E00BB9279520F451503B
:103B100021F4220FF9CF012756E000003B5A0BB9E0
:103B2000D0F2279528F4515029F4220F0000F9CF44
:103B3000012756E027950BB920F4515021F4220FAC
:103B4000F9CF012756E0299133230BB921F60B7EDB
:103B500010912301110FC651D0400BB911F01093F1
:103B60001D0111E01CBB00611AB11B7E402F4B7E72
:103B70005F9100C000C00BB91AB94BB97CCF1BB81C
:103B8000F8941DBA1092690081E085BF15BEE091DE
:103B90001001F0911101099588E10FB6F894809316
:103BA0006000109260000FBE5F9A04B601FECBC1A8
:103BB00014BE81E085BF82E085BF4F99C4C180916A
:103BC0006900826080936900E89A549A20E005C0F9
:103BD000A89588EB9BE00197F1F72150C9F754981D
:103BE0007894FF2400E090912201935097FD2EC11C
:103BF00080911F01CCE0D0E0C81BD109CA5DDE4F27
:103C000080911E018D3209F0C4C0983009F01CC1AA
:103C100083EC809312018AE58093000110920A01DF
:103C20003881832F80762981882309F443C086E078
:103C300091E090932101809320012330C9F49B816E
:103C40008C812A81203339F48370E82FF0E0EE5F15
:103C5000FE4F808109C0203A11F476D105C0203C86
:103C600011F46D8179D180E08093090194E087C0DF
:103C7000253011F491E083C0822F8450863098F46F
:103C80008A819B8190930D0180930C01293081F0F2
:103C90009E8190930E018D81827080930F0137FD7C
:103CA00069C02FEF68C0223019F481E080930B01C6
:103CB00090E065C08A8110921B01222331F410929A
:103CC0001C012BE131E092E050C0253019F48093C3
:103CD000230148C02630B1F58B81813019F486E983
:103CE00098E304C0823041F488EA98E3909321017C
:103CF0008093200192E122C08330F9F48A818823E5
:103D000041F488E698E3909321018093200194E0A8
:103D100015C0813041F48CE698E3909321018093A3
:103D200020019CE10BC0823041F488E898E3909335
:103D30002101809320019EE001C090E080E4809307
:103D40000A011DC0283019F425E231E009C02930EC
:103D500019F48093250106C02A3021F42BE131E0CB
:103D600091E003C02BE131E090E0309321012093FA
:103D7000200105C0292F80E880930A0107C08F81A8
:103D8000882319F42E81291708F0292F2093010187
:103D90005BC080910A0187FF57C080910E01592FA7
:103DA000891708F4582F851B80930E0160E0882343
:103DB00009F461E070910F01E0910C01F0910D01A7
:103DC00040E037C0CF018F779070892B49F4F89489
:103DD00083E080935700E895789407B600FCFDCF08
:103DE0004E5FF8948991999121E00C01209357003E
:103DF000E895112478949F012E5F3F4FC9018F777A
:103E00009070892B31F0662399F0451788F077235D
:103E100079F0F89485E080935700E895789407B698
:103E200000FCFDCFF89481E180935700E8957894E9
:103E3000F901451708F4C6CFF0930D01E0930C018A
:103E4000662311F01092010110922201809100016D
:103E500084FF65C0809101018F3F09F460C0182F75
:103E6000893008F018E0811B8093010180911201D4
:103E700098E8892780931201112309F43EC08091AC
:103E80000A0187FF1EC080910E01811708F4182FC8
:103E9000811B80930E01E0910C01F0910D01A3E1D3
:103EA000B1E003C084918D933196812F90E08D5EB7
:103EB0009E4FA817B907B1F7F0930D01E0930C01DD
:103EC0001AC0E0912001F091210186FF09C0912FD5
:103ED000A3E1B1E084918D9331969150D9F707C059
:103EE000912FA3E1B1E081918D939150E1F7F0938F
:103EF0002101E0932001193060F483E191E0612F0A
:103F00000DDD612F6C5F6C3041F08FEF809301010C
:103F100004C08FEF809301016EE16093000194E192
:103F200089B1847131F49150D9F710922301109224
:103F30001D0180910B01882321F0FA9411F40150A6
:103F400011F04F9B50CE1BDEF999FECF92BD81BD83
:103F5000F89A992780B50895262FF999FECF1FBAB0
:103F600092BD81BD20BD0FB6F894FA9AF99A0FBEA2
:083F700001960895F894FFCFBB
:063F78005AFF1E94060032
:0400000300003800C1
:00000001FF
