:101800004CC081C066C065C064C063C062C061C0B6
:1018100060C05FC05EC05DC05CC05BC05AC059C0E4
:1018200058C057C056C00000EC2DFD2DB7B6B0FC17
:10183000FDCF27BFE895B7B6B0FCFDCF21E1B7B625
:10184000B6FCF4CF0895FFFF040309041C037700DE
:10185000770077002E00660069007300630068005F
:101860006C002E00640065000E035500530042001A
:1018700061007300700012011001FF000008C01623
:10188000DC050201010200010902120001010080D1
:101890003209040000000000000011241FBECFE543
:1018A000D4E0DEBFCDBF10E0A0E6B0E0E8EFFFE19E
:1018B00003C0C89531960D92A836B107D1F710E054
:1018C000A8E6B0E001C01D92AE39B107E1F72FD113
:1018D00091C396CFA82FB92F80E090E041E050EA65
:1018E000609530E009C02D9182279795879510F07B
:1018F00084279527305EC8F36F5FA8F30895EADF69
:101900008D939D930895CF93CFB7CF93DF93C395D6
:10191000869BE9F7869B0BC0869B09C0869B07C008
:10192000869B05C0869B03C0869B01C089C06F93C0
:10193000C0918100DD27C857DF4F2F9365E5869B57
:1019400003C02F916F91E6CF0F931F934F9320E029
:1019500040E15F9300B3047406FB27F93F9350E026
:101960003BE039C0147440642F77012F5F5F1EC0C5
:10197000406810B314742F7752501FC0406400B3F6
:101980002F770474D1F15F5F00C023C0406210B3B1
:101990002F77147491F15F5F00C025C00474102785
:1019A000515012F45D5F0000115027952C3F10B389
:1019B000C8F614740127015027952C3FC8F642271A
:1019C000499300B3047410274F73115027952C3F8F
:1019D000A8F64695469510B3147479F00127015086
:1019E00027952C3F98F66B5A60F3315000B3B0F650
:1019F00000C010E41ABF002717C03B503195C31B2D
:101A0000D04010E41ABF0881033CF9F00B34E9F030
:101A100020917F001981110F1213EDCF093651F17A
:101A20000D3211F0013E39F7009386003F915F912E
:101A30004F911F910F912F916F91CAB7C6FD67CF3C
:101A4000DF91CF91CFBFCF911895209186002223AF
:101A500069F310918400112339F534303AF1309351
:101A6000840020938000109181003BE0311B309373
:101A700081001CC0009184000130B4F40AE530916B
:101A8000600034FD14C000936000C4E7D0E013C0D0
:101A9000052710E000C0000002BB1AC0052710E0B7
:101AA000221F1DC010E021C04AE502C032ED432FC5
:101AB000C4E1D0E032E011B31464969A02B311BBD2
:101AC00054E420E865E320FF052702BB279517951E
:101AD0001C3FF0F66695B8F7B1F720FF052702BB6B
:101AE000279517951C3FD0F62795179517FF0527C3
:101AF00000001C3F02BBB0F629913A9519F70B7B09
:101B000010918500110FC651D04002BB11F0109307
:101B10007F0010E41ABF006411B31B7B402F4B7B86
:101B200054E05A95F1F702BB11BB42BB7FCF11BA0B
:101B300080E882BB14BE81E08BBF82E08BBF8799B7
:101B400037C288E10FB6F89481BD11BC0FBE85B7CE
:101B5000826085BF8BB780648BBF8E9A20E004C003
:101B600080EA9FE00197F1F72150D1F78E987894A1
:101B700080918400835087FD76C190918100CCE0F4
:101B8000D0E0C91BD109C857DF4F909180009D322A
:101B900009F0E4C0883009F064C183EC80937400DC
:101BA0008AE580936000109268004881842F8076D7
:101BB0003981882309F465C08EE690E09093830014
:101BC00080938200333081F59B818C812A81203380
:101BD00039F48370E82FF0E0ED59FF4F808120C089
:101BE000283529F4992371F4E1E0F0E006C02035AE
:101BF00071F49923A1F4E0E0F0E089E080935700CC
:101C000084910EC0983059F4E3E0F0E0F6CF203A2A
:101C100011F4DBD105C0203C11F46D81DED180E0F0
:101C20008093710024E090C0353039F13A3029F1C9
:101C3000832F84508630A8F48A819B8190936A0018
:101C4000809369003930D9F02E8120936B008D810B
:101C5000827080936C0030936D0047FD71C02FEF50
:101C60006FC0323021F4809161008E7F03C080917B
:101C7000610081608093610002C021E065C020E0C6
:101C800063C08A8110927D00332331F410927E006C
:101C90008DE790E022E04FC0353019F48093850045
:101CA00040C03630A9F59B81913019F486E798E160
:101CB00004C0923041F488E898E1909383008093C7
:101CC000820022E121C09330F1F4882341F488E4BA
:101CD00098E1909383008093820024E015C08130C6
:101CE00041F48CE498E190938300809382002CE18E
:101CF0000BC0823041F488E698E190938300809392
:101D000082002EE001C020E080E4809368001CC0C7
:101D1000383059F0393019F48093870002C03A30D6
:101D200039F08DE790E020E006C087E890E002C03F
:101D30008DE790E021E0909383008093820004C0BF
:101D400080E88093680007C08F81882321F48E810A
:101D5000821708F4282F2093620083C090916800B6
:101D600097FF7FC090916B00F82E981708F4F92E1A
:101D70009F1990936B00EE24E3949111EE248091CF
:101D80006D00873010F420E065C08E010FC0809197
:101D9000690090916A009C012F5F3F4F30936A0069
:101DA00020936900F80161918F0117D1802F8C1B5E
:101DB0008F1568F352C08091690090916A0038E1F4
:101DC0008030930708F04BC02E5FF894E0916900D3
:101DD000F0916A008991999131E00C01309357009C
:101DE000E895112478948091690090916A00029698
:101DF00090936A00809369008F739070009741F010
:101E0000EE2041F12F1530F180916C00882311F103
:101E1000F894E0916900F0916A00329783E0809332
:101E20005700E895789407B600FCFDCFF894E09150
:101E30006900F0916A00329785E080935700E89539
:101E4000789407B600FCFDCFF89481E180935700A9
:101E5000E89578942F1508F4AECFEE2011F010928B
:101E60006200109284008091600084FF7DC08091A8
:101E700062008F3F09F478C0F82E893010F098E0A6
:101E8000F92E8F19809362008091740098E8892759
:101E900080937400FF2009F455C09091680097FF6B
:101EA0002AC080916B008F1508F4F82E8F1980934B
:101EB0006B000F2D10E00B581F4FC5E7D0E017C087
:101EC00020916D008091690090916A00273010F098
:101ED0007CD002C0FC0184918883219680916900A6
:101EE00090916A00019690936A0080936900C017F0
:101EF000D10731F724C0E0918200F09183008F2D4B
:101F0000815096FF0CC090E08A589F4FA5E7B0E043
:101F100024912D933196A817B907D1F70CC0EF0182
:101F200090E08A589F4FA5E7B0E029912D93FE01DC
:101F3000A817B907D1F7F0938300E0938200FF2D33
:101F4000F93060F485E790E06F2DD9DC8F2D8C5F40
:101F50008C3041F09FEF9093620004C08FEF80932C
:101F600062008EE18093600084E190B3947431F458
:101F70008150D9F71092850010927F008091610006
:101F8000803130F0879B0FC080916100805109C083
:101F9000879909C080916100823028F080916100AA
:101FA00082508093610080916100882309F0E0CD28
:101FB000F8948E9A12BA1BBE15BE81E08BBF1BBE71
:101FC000E0917200F09173000995E199FECF9FBBFB
:101FD0008EBBE09A99278DB30895262FE199FECF05
:101FE0009FBB8EBB2DBB0FB6F894E29AE19A0FBE51
:081FF00001960895F894FFCF5B
:081FF8005AFEFF1E93070000D2
:0400000300001800E1
:00000001FF
